{
  "contractName": "BatchDeposit_Goerli",
  "abi": [
    {
      "inputs": [],
      "payable": false,
      "stateMutability": "nonpayable",
      "type": "constructor"
    },
    {
      "payable": true,
      "stateMutability": "payable",
      "type": "fallback"
    },
    {
      "anonymous": false,
      "inputs": [
        {
          "indexed": false,
          "internalType": "address",
          "name": "from",
          "type": "address"
        },
        {
          "indexed": false,
          "internalType": "uint256",
          "name": "amount",
          "type": "uint256"
        }
      ],
      "name": "LogSendDepositLeftover",
      "type": "event"
    },
    {
      "anonymous": false,
      "inputs": [
        {
          "indexed": false,
          "internalType": "bool",
          "name": "",
          "type": "bool"
        }
      ],
      "name": "BatchDepositEnded",
      "type": "event"
    },
    {
      "constant": false,
      "inputs": [
        {
          "internalType": "bytes[]",
          "name": "pubkeys",
          "type": "bytes[]"
        },
        {
          "internalType": "bytes[]",
          "name": "withdrawal_credentials",
          "type": "bytes[]"
        },
        {
          "internalType": "bytes[]",
          "name": "signatures",
          "type": "bytes[]"
        },
        {
          "internalType": "bytes32[]",
          "name": "deposit_data_roots",
          "type": "bytes32[]"
        }
      ],
      "name": "batchDeposit",
      "outputs": [],
      "payable": true,
      "stateMutability": "payable",
      "type": "function"
    }
  ],
  "bytecode": "0x608060405234801561001057600080fd5b50610efa806100206000396000f3fe60806040526004361061001e5760003560e01c8063ca0bfcce1461009f575b60008036905014610064576040517f08c379a000000000000000000000000000000000000000000000000000000000815260040161005b90610cf6565b60405180910390fd5b6040517f08c379a000000000000000000000000000000000000000000000000000000000815260040161009690610cb6565b60405180910390fd5b6100b960048036036100b49190810190610740565b6100bb565b005b85859050888890501480156100d557508383905088889050145b80156100e657508181905088889050145b610125576040517f08c379a000000000000000000000000000000000000000000000000000000000815260040161011c90610d36565b60405180910390fd5b600088889050141561016c576040517f08c379a000000000000000000000000000000000000000000000000000000000815260040161016390610d56565b60405180910390fd5b61018b888890506801bc16d674ec80000061054290919063ffffffff16565b3410156101cd576040517f08c379a00000000000000000000000000000000000000000000000000000000081526004016101c490610d16565b60405180910390fd5b600080905060008090505b898990508110156103cf57735ca1e00004366ac85f492887aaab12d0e641887673ffffffffffffffffffffffffffffffffffffffff1663228951186801bc16d674ec8000008c8c8581811061022957fe5b905060200281018035600160200383360303811261024657600080fd5b8083019250508135905060208201915067ffffffffffffffff81111561026b57600080fd5b60018102360382131561027d57600080fd5b8c8c8781811061028957fe5b90506020028101803560016020038336030381126102a657600080fd5b8083019250508135905060208201915067ffffffffffffffff8111156102cb57600080fd5b6001810236038213156102dd57600080fd5b8c8c898181106102e957fe5b905060200281018035600160200383360303811261030657600080fd5b8083019250508135905060208201915067ffffffffffffffff81111561032b57600080fd5b60018102360382131561033d57600080fd5b8c8c8b81811061034957fe5b905060200201356040518963ffffffff1660e01b81526004016103729796959493929190610c34565b6000604051808303818588803b15801561038b57600080fd5b505af115801561039f573d6000803e3d6000fd5b50505050506103c06801bc16d674ec800000836105b290919063ffffffff16565b915080806001019150506101d8565b506103ef898990506801bc16d674ec80000061054290919063ffffffff16565b81146103f757fe5b7f188ceaa040bda113d29ffe31c0a2ba1b7c7c1dfc6619fe6ec4bcbba1c548ec8160016040516104279190610c19565b60405180910390a16000610444823461060790919063ffffffff16565b905060008111156105365760003373ffffffffffffffffffffffffffffffffffffffff168260405161047590610bdb565b60006040518083038185875af1925050503d80600081146104b2576040519150601f19603f3d011682016040523d82523d6000602084013e6104b7565b606091505b50509050806104fb576040517f08c379a00000000000000000000000000000000000000000000000000000000081526004016104f290610d76565b60405180910390fd5b7f5bf796d990a3e234f75e4f1e307ccc21ddd796f87f41563e8320696505ee268a338360405161052c929190610bf0565b60405180910390a1505b50505050505050505050565b60008083141561055557600090506105ac565b600082840290508284828161056657fe5b04146105a7576040517f08c379a000000000000000000000000000000000000000000000000000000000815260040161059e90610d96565b60405180910390fd5b809150505b92915050565b6000808284019050838110156105fd576040517f08c379a00000000000000000000000000000000000000000000000000000000081526004016105f490610cd6565b60405180910390fd5b8091505092915050565b600061064983836040518060400160405280601e81526020017f536166654d6174683a207375627472616374696f6e206f766572666c6f770000815250610651565b905092915050565b6000838311158290610699576040517f08c379a00000000000000000000000000000000000000000000000000000000081526004016106909190610c94565b60405180910390fd5b5060008385039050809150509392505050565b60008083601f8401126106be57600080fd5b8235905067ffffffffffffffff8111156106d757600080fd5b6020830191508360208202830111156106ef57600080fd5b9250929050565b60008083601f84011261070857600080fd5b8235905067ffffffffffffffff81111561072157600080fd5b60208301915083602082028301111561073957600080fd5b9250929050565b6000806000806000806000806080898b03121561075c57600080fd5b600089013567ffffffffffffffff81111561077657600080fd5b6107828b828c016106f6565b9850985050602089013567ffffffffffffffff8111156107a157600080fd5b6107ad8b828c016106f6565b9650965050604089013567ffffffffffffffff8111156107cc57600080fd5b6107d88b828c016106f6565b9450945050606089013567ffffffffffffffff8111156107f757600080fd5b6108038b828c016106ac565b92509250509295985092959890939650565b61081e81610e2e565b82525050565b61082d81610dee565b82525050565b61083c81610dfa565b82525050565b600061084e8385610dc1565b935061085b838584610e64565b61086483610ea6565b840190509392505050565b600061087a82610db6565b6108848185610ddd565b9350610894818560208601610e73565b61089d81610ea6565b840191505092915050565b60006108b5603a83610ddd565b91507f546f2073656e6420657468657220746f207468697320636f6e74726163742c2060008301527f7573652062617463684465706f7369742066756e6374696f6e2e0000000000006020830152604082019050919050565b600061091b601b83610ddd565b91507f536166654d6174683a206164646974696f6e206f766572666c6f7700000000006000830152602082019050919050565b600061095b603983610ddd565b91507f6d73672e64617461206e6565647320746f20626520656d707479207768656e2060008301527f63616c6c696e672066616c6c6261636b2066756e6374696f6e000000000000006020830152604082019050919050565b60006109c1603483610ddd565b91507f53656e74206574686572206e6565647320746f20626520657175616c20746f2060008301527f3332202a2064617461e2809973206c656e6774680000000000000000000000006020830152604082019050919050565b6000610a27603e83610ddd565b91507f416c6c206f662074686520706172616d6574657273206e6565647320746f206860008301527f617665207468652073616d65206c656e67746873206f662061727261797300006020830152604082019050919050565b6000610a8d602183610ddd565b91507f506172616d6574657273206172726179732063616e6e6f7420626520656d707460008301527f79000000000000000000000000000000000000000000000000000000000000006020830152604082019050919050565b6000610af3602283610ddd565b91507f7472616e73666572206f662072656d61696e696e672066756e6473206661696c60008301527f65640000000000000000000000000000000000000000000000000000000000006020830152604082019050919050565b6000610b59602183610ddd565b91507f536166654d6174683a206d756c7469706c69636174696f6e206f766572666c6f60008301527f77000000000000000000000000000000000000000000000000000000000000006020830152604082019050919050565b6000610bbf600083610dd2565b9150600082019050919050565b610bd581610e24565b82525050565b6000610be682610bb2565b9150819050919050565b6000604082019050610c056000830185610815565b610c126020830184610bcc565b9392505050565b6000602082019050610c2e6000830184610824565b92915050565b60006080820190508181036000830152610c4f81898b610842565b90508181036020830152610c64818789610842565b90508181036040830152610c79818587610842565b9050610c886060830184610833565b98975050505050505050565b60006020820190508181036000830152610cae818461086f565b905092915050565b60006020820190508181036000830152610ccf816108a8565b9050919050565b60006020820190508181036000830152610cef8161090e565b9050919050565b60006020820190508181036000830152610d0f8161094e565b9050919050565b60006020820190508181036000830152610d2f816109b4565b9050919050565b60006020820190508181036000830152610d4f81610a1a565b9050919050565b60006020820190508181036000830152610d6f81610a80565b9050919050565b60006020820190508181036000830152610d8f81610ae6565b9050919050565b60006020820190508181036000830152610daf81610b4c565b9050919050565b600081519050919050565b600082825260208201905092915050565b600081905092915050565b600082825260208201905092915050565b60008115159050919050565b6000819050919050565b600073ffffffffffffffffffffffffffffffffffffffff82169050919050565b6000819050919050565b6000610e3982610e40565b9050919050565b6000610e4b82610e52565b9050919050565b6000610e5d82610e04565b9050919050565b82818337600083830152505050565b60005b83811015610e91578082015181840152602081019050610e76565b83811115610ea0576000848401525b50505050565b6000601f19601f830116905091905056fea365627a7a72315820969243a7d21fc5f48674ae7d877a62d273d8582bb75ace658ccd3e78edad4ab46c6578706572696d656e74616cf564736f6c634300050b0040",
  "source": "pragma solidity 0.5.11;\npragma experimental ABIEncoderV2;\n\nimport \"openzeppelin-solidity/contracts/math/SafeMath.sol\";\nimport \"./IDeposit.sol\";\n\n\ncontract BatchDeposit_Goerli {\n    using SafeMath for uint256;\n\n    address constant DEPOSIT_CONTRACT_ADDRESS = 0x5cA1e00004366Ac85f492887AAab12d0e6418876;\n    uint256 constant DEPOSIT_AMOUNT = 32 ether;\n    IDeposit constant DEPOSIT_CONTRACT = IDeposit(DEPOSIT_CONTRACT_ADDRESS);\n\n    constructor() public {}\n\n    function batchDeposit(\n        bytes[] calldata pubkeys,\n        bytes[] calldata withdrawal_credentials,\n        bytes[] calldata signatures,\n        bytes32[] calldata deposit_data_roots\n    ) external payable {\n        require(\n            pubkeys.length == withdrawal_credentials.length &&\n            pubkeys.length == signatures.length &&\n            pubkeys.length == deposit_data_roots.length,\n            \"All of the parameters needs to have the same lengths of arrays\"\n        );\n        require(pubkeys.length != 0, \"Parameters arrays cannot be empty\");\n        require(msg.value >= DEPOSIT_AMOUNT.mul(pubkeys.length),\"Sent ether needs to be equal to 32 * data’s length\");\n        uint256 deposited = 0;\n        for (uint256 i = 0; i < pubkeys.length; i++) {\n            DEPOSIT_CONTRACT.deposit.value(DEPOSIT_AMOUNT)(\n                pubkeys[i],\n                withdrawal_credentials[i],\n                signatures[i],\n                deposit_data_roots[i]\n            );\n            deposited = deposited.add(DEPOSIT_AMOUNT);\n        }\n        assert(deposited == DEPOSIT_AMOUNT.mul(pubkeys.length));\n        emit BatchDepositEnded(true);\n        uint256 ethToReturn = msg.value.sub(deposited);\n        if (ethToReturn > 0) {\n            (bool success, ) = msg.sender.call.value(ethToReturn)(\"\");\n            require(success, \"transfer of remaining funds failed\");\n            emit LogSendDepositLeftover(msg.sender, ethToReturn);\n        }\n    }\n\n    function() external payable {\n        require(\n            msg.data.length == 0,\n            \"msg.data needs to be empty when calling fallback function\"\n        );\n        revert(\"To send ether to this contract, use batchDeposit function.\");\n    }\n\n    event LogSendDepositLeftover(address from, uint256 amount);\n    event BatchDepositEnded(bool);\n}\n",
  "sourcePath": "/Users/remote/Desktop/eth2-batch/contracts/BatchDeposit_Goerli.sol",
  "compiler": {
    "name": "solc",
    "version": "0.5.11+commit.c082d0b4.Emscripten.clang"
  },
  "schemaVersion": "3.1.0",
  "updatedAt": "2020-05-06T22:38:22.171Z",
  "devdoc": {
    "methods": {}
  },
  "userdoc": {
    "methods": {}
  }
}